:020000040800F2
:1000000000000220C10D00082D0D0008330D00086E
:10001000390D00083F0D0008450D000800000000E4
:100020000000000000000000000000004B0D000870
:10003000590D000800000000670D0008750D00084C
:10004000110E0008110E0008110E0008110E000814
:10005000110E0008110E0008110E0008110E000804
:10006000110E0008110E0008110E0008110E0008F4
:10007000110E0008110E0008110E0008110E0008E4
:10008000110E0008110E0008110E0008110E0008D4
:10009000110E0008110E0008110E0008110E0008C4
:1000A000110E0008110E0008110E0008110E0008B4
:1000B000110E0008110E0008110E0008110E0008A4
:1000C000110E0008110E0008110E0008110E000894
:1000D000110E0008110E0008110E0008110E000884
:1000E000110E0008110E0008110E0008110E000874
:1000F000110E0008110E0008110E0008110E000864
:10010000110E0008110E0008110E0008110E000853
:10011000110E0008110E0008110E0008110E000843
:10012000110E0008110E0008110E0008110E000833
:10013000110E00080000000000000000110E000871
:10014000110E0008110E0008110E0008810D0008A4
:10015000110E0008110E0008110E0008110E000803
:10016000110E0008110E0008110E0008110E0008F3
:10017000110E0008110E000800000000110E00080A
:08018000110E0008110E000829
:1001880010B5054C237833B9044B13B10448AFF3C9
:1001980000800123237010BD8801002000000000AA
:1001A800F09E000808B5034B1BB103490348AFF3A1
:1001B800008008BD000000008C010020F09E0008AF
:1001C80053B94AB9002908BF00281CBF4FF0FF31B6
:1001D8004FF0FF3000F070B9ADF1080C6DE904CEB6
:1001E80000F006F8DDF804E0DDE9022304B070470A
:1001F8002DE9F047089E0D4604460F46002B4AD1CC
:100208008A42944665D9B2FA82F343B102FA03FCF2
:10021800C3F120029F4020FA02F217439C404FEAA4
:100228001C4E1FFA8CF5B7FBFEF1220C0EFB117762
:1002380042EA074201FB05F090420AD91CEB020290
:1002480001F1FF3780F01C81904240F21981023998
:100258006244121AA4B2B2FBFEF00EFB102244EA6A
:10026800024400FB05F5A5420AD91CEB040400F181
:10027800FF3280F00781A54240F2048164440238CD
:1002880040EA0140641B00211EB1DC400023C6E99E
:100298000043BDE8F0878B4208D9002E00F0ED80BE
:1002A8000021C6E900050846BDE8F087B3FA83F1E6
:1002B800002949D1AB4202D3824200F2F880841A65
:1002C80065EB030201201746002EE2D0C6E900477D
:1002D800DFE702B9FFDEB2FA82F3002B40F090802C
:1002E8008A1A4FEA1C471FFA8CFE0121B2FBF7F568
:1002F80007FB1520220C42EA00420EFB05F0904253
:1003080008D91CEB020205F1FF3802D2904200F234
:10031800CB804546121AA4B2B2FBF7F007FB1022B5
:1003280044EA02440EFB00FEA64508D91CEB04046F
:1003380000F1FF3202D2A64500F2BB801046A4EBC2
:100348000E0440EA05409FE7C1F120078B4022FADE
:1003580007FC4CEA030C05FA01F420FA07F3FD4008
:100368004FEA1C492343B5FBF9F81FFA8CFE09FB39
:1003780018551C0C44EA054408FB0EF5A54202FA80
:1003880001F200FA01F00BD91CEB040408F1FF3A62
:1003980080F08880A54240F28580A8F10208644474
:1003A800641B9DB2B4FBF9F309FB134445EA04440A
:1003B80003FB0EFEA64508D91CEB040403F1FF3528
:1003C8006CD2A6456AD9023B644443EA0843A3FBBE
:1003D8000295A4EB0E04AC42C846AE4656D353D0A1
:1003E80056B1B0EB080264EB0E0404FA07F7CA40F2
:1003F800CC401743C6E9007418460021BDE8F087D1
:10040800C3F1200102FA03FC20FA01F225FA01F1F6
:100418009D402A434FEA1C471FFA8CFEB1FBF7F0B8
:1004280007FB1015110C41EA054100FB0EF58D4242
:1004380004FA03F408D91CEB010100F1FF382FD2AC
:100448008D422DD902386144491B92B2B1FBF7F5B0
:1004580007FB151142EA014205FB0EF1914208D94A
:100468001CEB020205F1FF3816D2914214D9023D65
:100478006244521A45EA004138E73146304608E7F7
:100488003946E6E61046FBE64845A9D2B9EB02082C
:1004980065EB0C0E013BA3E74546EAE72B4694E7DC
:1004A8004046D1E7D0467BE7023D624432E7084642
:1004B8000AE76444023842E7704700BF80B582B05B
:1004C80000AF00F0A3FC00F091FA00F027FB00F069
:1004D800F7FA06F071FE9F4A9F4B104619465423BF
:1004E8001A4609F0F3FC9B4B5222A3F85420994B6F
:1004F8009A4A9A65974B2022DA65964B974A1A666C
:10050800944B01225A66934B944A9A66914B022265
:10051800DA66904809F016FC03461A46904B1A60B2
:100528008C4809F03FFC03461A468D4B1B68134460
:100538008B4A13608B49874807F008FF03461A4621
:10054800874B1B681344864A1360864B1B78002B25
:1005580005D100220221844800F0B4FF04E0012202
:100568000221814800F0AEFF7A4807F039FF0346C0
:100578001A467B4B1B681344794A1360032175485C
:1005880009F08AF903461A46754B1B681344744AE6
:10059800136040216F4809F01CF803461A46704B57
:1005A8001B6813446E4A13600A216A4809F0E5F88B
:1005B80003461A466A4B1B681344694A13601421A0
:1005C800644809F0FBF803461A46654B1B68134458
:1005D800634A136000215F4809F026F903461A466A
:1005E8005F4B1B6813445E4A13605A4808F064FB6B
:1005F80003461A465A4B1B681344594A1360584B12
:100608001B68002B05D000220421574800F05AFF30
:1006180004E001220421544800F054FF4FF47A709A
:1006280000F066FC514B1B78002B72D04F4B1B78A7
:10063800532B4FD14D4B5B78452B4BD14B4B9B7874
:10064800542B47D100220421474800F03BFF474B79
:10065800DA78474B1A70454B1A79464B1A70434B58
:100668005B799BB21B029AB2434B1A803F4B9B7932
:100678009AB2414B1B8813449AB23F4B1A803B4BAA
:10068800DA793E4B1A70394B1A7A3D4B1A70314859
:1006980008F08EFC364B1B7819462E4808F099FF57
:1006A800344B1B7819462B4809F067F8324B1B88E6
:1006B8001946284809F082F8304B1B781946254816
:1006C80009F0B2F8234808F0F7FA01220421264875
:1006D80000F0F8FE254B1B78472B17D1234B5B788E
:1006E800452B13D1214B9B78542B0FD1204B1B78D2
:1006F8009BB21A46520013449BB201339BB219466F
:10070800204806F01DFE012000F0F2FB174B0022E6
:100718001A70104809F058FB0346002B40F0568128
:1007280001220221104800F0CDFE1149094808F0C5
:100738002BFF03461A460A4B1A601349054808F06E
:1007480007FD03461A46064B1A6000237B60002308
:100758003B602BE1FC010020A401002000040240C2
:10076800F80100206D120020000002404C16002005
:1007780000000020010000200400002002000020EA
:100788006C120020701200201C0D00203A681346DD
:100798005B0013447B60904B1B78082B00F20381AD
:1007A80001A252F823F000BFD50700081908000875
:1007B8005908000883080008AD080008D708000891
:1007C8002109000865090008AF090008834A7B6809
:1007D800134400221A70824A3B6803F5F0735B00E9
:1007E8001344B3F904301B121AB27B680133D1B237
:1007F8007A4AD1547A4A3B6803F5F0735B00134494
:10080800B3F904207B680233D1B2744AD154CAE0E8
:10081800724A7B68134400221A70714A3B6803F5D8
:10082800D0735B0013449B881B0A9AB27B68013320
:10083800D1B26A4AD1546A4A3B6803F5D0735B0067
:1008480013449A887B680233D1B2644AD154AAE02F
:10085800624A7B68134400221A707B6801335F4A3E
:100868000021D1547B6802335D493A680A4402F298
:1008780044421178594AD15495E0584A7B68134448
:1008880000221A707B680133544A0021D1547B68D6
:10089800023353493A680A4402F2844211784F4AB3
:1008A800D15480E04D4A7B68134400221A707B685B
:1008B80001334A4A0021D1547B68023348493A68D7
:1008C8000A4402F582721178444AD1546BE0444AD2
:1008D8003B6890339B0013445B681B0CD9B23F4ABA
:1008E8007B6813440A461A703D4A3B6890339B0064
:1008F80013445B681A0A7B680133D1B2374AD15472
:10090800374A3B6890339B0013445A687B6802332C
:10091800D1B2324AD15446E0314A3B689B00134475
:100928005B681B0CD9B22D4A7B6813440A461A70BF
:100938002B4A3B689B0013445B681A0A7B680133A7
:10094800D1B2264AD154264A3B689B0013445A68C0
:100958007B680233D1B2214AD15424E0204A3B6853
:1009680050339B0013445B681B0CD9B21B4A7B684D
:1009780013440A461A701A4A3B6850339B001344C2
:100988005B681A0A7B680133D1B2144AD154144AFD
:100998003B6850339B0013445A687B680233D1B2DA
:1009A8000E4AD15400BF3B6801333B600D4B1B78A6
:1009B8001A463B689342FFF6E9AE094B93F90020CB
:1009C8007B680333D1B2054AD1542BE600220221B9
:1009D800054800F077FD25E66C1200207012002013
:1009E8001C0D0020000000200000024080B594B0DB
:1009F80000AF07F1200330220021184609F039FA28
:100A080007F10C0300221A605A609A60DA601A61D2
:100A18000023BB60284B1B6C274A43F080531364A8
:100A2800254B1B6C03F08053BB60BB6800237B60C5
:100A3800224B1B68214A43F4804313601F4B1B68F9
:100A480003F480437B607B6801233B624FF480336F
:100A58007B620223BB634FF48003FB6308233B6480
:100A6800A8237B640223BB640723FB6407F12003EC
:100A7800184602F0E9FF0346002B01D000F0DCF82D
:100A88000F23FB6002233B6100237B614FF4A053DB
:100A9800BB614FF48053FB6107F10C030521184635
:100AA80003F040FA0346002B01D000F0C5F800BF60
:100AB8005037BD4680BD00BF00380240007000407E
:100AC80080B500AF124B134A1A60114B124A5A6094
:100AD8000F4B00229A600E4B0022DA600C4B4FF449
:100AE80080421A610A4B00225A61094B00229A611E
:100AF800074B0022DA61064B00221A62044800F014
:100B0800FBFC0346002B01D000F096F800BF80BD27
:100B1800A401002000580040801A060080B58AB061
:100B280000AF07F1140300221A605A609A60DA6075
:100B38001A6100233B613C4B1B6B3B4A43F080032B
:100B48001363394B1B6B03F080033B613B69002344
:100B5800FB60354B1B6B344A43F004031363324B81
:100B68001B6B03F00403FB60FB680023BB602E4B88
:100B78001B6B2D4A43F0010313632B4B1B6B03F0D4
:100B88000103BB60BB6800237B60274B1B6B264AB5
:100B980043F002031363244B1B6B03F002037B60D7
:100BA8007B6800220621214800F08CFC00222121CC
:100BB8001F4800F087FC03237B610023BB610023EF
:100BC800FB6107F1140319461A4800F0C7FA062317
:100BD8007B610123BB610023FB6100233B6207F1BA
:100BE80014031946114800F0B9FA21237B61012347
:100BF800BB610023FB6100233B6207F11403194624
:100C08000B4800F0ABFA02237B610023BB61002391
:100C1800FB6107F114031946054800F09FFA00BF6D
:100C28002837BD4680BD00BF0038024000000240A2
:100C3800000402400008024080B400AF72B600BF52
:100C4800FEE7000080B483B000AF00237B60104B48
:100C58005B6C0F4A43F4804353640D4B5B6C03F4A5
:100C680080437B607B6800233B60094B1B6C084A10
:100C780043F080531364064B1B6C03F080533B60B6
:100C88003B6800BF0C37BD465DF8047B704700BF6A
:100C98000038024080B58AB000AF786007F11403CD
:100CA80000221A605A609A60DA601A617B681B68D1
:100CB800194A93422CD100233B61184B1B6B174AEE
:100CC80043F002031363154B1B6B03F002033B61F4
:100CD8003B694FF440637B611223BB610023FB61D6
:100CE80003233B6204237B6207F1140319460C4873
:100CF80000F034FA0023FB60084B1B6C074A43F4EE
:100D080080031364054B1B6C03F48003FB60FB68D2
:100D180000BF2837BD4680BD00580040003802405B
:100D28000004024080B400AFFEE780B400AFFEE7E5
:100D380080B400AFFEE780B400AFFEE780B400AF38
:100D4800FEE780B400AF00BFBD465DF8047B704786
:100D580080B400AF00BFBD465DF8047B704780B427
:100D680000AF00BFBD465DF8047B704780B500AF9B
:100D780000F09EF800BF80BD80B500AF024801F0CA
:100D880030FE00BF80BD00BF4C28002080B400AFFB
:100D9800084BD3F88830074A43F47003C2F8883008
:100DA800044B4FF000629A6000BFBD465DF8047BBB
:100DB800704700BF00ED00E0DFF834D0002103E009
:100DC8000C4B5B58435004310B480C4B42189A4269
:100DD800F6D30B4A02E0002342F8043B094B9A423F
:100DE800F9D3FFF7D3FF09F04DF8FFF767FB70471A
:100DF80000000220E0F60108000000208801002021
:100E080088010020742E0020FEE7000080B500AFA6
:100E18000E4B1B680D4A43F4007313600B4B1B68A1
:100E28000A4A43F480631360084B1B68074A43F47B
:100E380080731360032000F04FF90F2000F008F8CA
:100E4800FFF700FF0023184680BD00BF003C0240AA
:100E580080B582B000AF7860124B1A68124B1B78CD
:100E680019464FF47A73B3FBF1F3B2FBF3F3184668
:100E780000F067F90346002B01D001230EE07B68E0
:100E88000F2B0AD8002279684FF0FF3000F02FF9B5
:100E9800064A7B681360002300E0012318460837E0
:100EA800BD4680BD08000020100000200C00002076
:100EB80080B400AF064B1B781A46064B1B681344D8
:100EC800044A136000BFBD465DF8047B704700BF4D
:100ED800100000207413002080B400AF034B1B687F
:100EE8001846BD465DF8047B704700BF74130020A8
:100EF80080B584B000AF7860FFF7EEFFB8607B681C
:100F0800FB60FB68B3F1FF3F05D00A4B1B781A461C
:100F1800FB681344FB6000BFFFF7DEFF0246BB68B7
:100F2800D31AFA689A42F7D800BF00BF1037BD46F7
:100F380080BD00BF1000002080B485B000AF78608D
:100F48007B6803F00703FB600C4BDB68BB60BA6887
:100F58004FF6FF031340BB60FB681A02BB681343DC
:100F680043F0BF6343F40033BB60044ABB68D360FB
:100F780000BF1437BD465DF8047B704700ED00E004
:100F880080B400AF044BDB681B0A03F00703184664
:100F9800BD465DF8047B704700ED00E080B483B087
:100FA80000AF0346FB7197F90730002B0BDBFB7989
:100FB80003F01F02074997F907305B09012000FA7F
:100FC80002F241F8232000BF0C37BD465DF8047BD0
:100FD800704700BF00E100E080B483B000AF034673
:100FE8003960FB7197F90730002B0ADB3B68DAB2EE
:100FF8000C4997F907301201D2B20B4483F8002349
:101008000AE03B68DAB20849FB7903F00F03043BB6
:101018001201D2B20B441A7600BF0C37BD465DF8F8
:10102800047B704700E100E000ED00E080B489B087
:1010380000AFF860B9607A60FB6803F00703FB61F2
:10104800FB69C3F10703042B28BF0423BB61FB69B9
:101058000433062B02D9FB69033B00E000237B61C4
:101068004FF0FF32BB6902FA03F3DA43BB681A4058
:101078007B699A404FF0FF317B6901FA03F3D9434A
:101088007B680B40134318462437BD465DF8047B44
:101098007047000080B582B000AF78607B68013B84
:1010A800B3F1807F01D301230FE00A4A7B68013B3B
:1010B80053600F214FF0FF30FFF78EFF054B0022E2
:1010C8009A60044B07221A60002318460837BD4669
:1010D80080BD00BF10E000E080B582B000AF78604E
:1010E8007868FFF729FF00BF0837BD4680BD80B587
:1010F80086B000AF0346B9607A60FB7300237B615A
:10110800FFF73EFF78617A68B9687869FFF78EFF64
:10111800024697F90F3011461846FFF75DFF00BFEA
:101128001837BD4680BD80B582B000AF0346FB715D
:1011380097F907301846FFF731FF00BF0837BD465B
:1011480080BD80B582B000AF78607868FFF7A2FFF5
:10115800034618460837BD4680BD000080B489B0F4
:1011680000AF7860396000237B6100233B61002376
:10117800BB610023FB616BE10122FB6902FA03F307
:101188007B613B681B687A6913403B613A697B69FC
:101198009A4240F05A813B685B68012B0BD03B6850
:1011A8005B68022B07D03B685B68112B03D03B6858
:1011B8005B68122B30D17B689B68BB61FB695B0065
:1011C800032202FA03F3DB43BA691340BB613B68AD
:1011D800DA68FB695B0002FA03F3BA691343BB617F
:1011E8007B68BA699A607B685B68BB610122FB69AE
:1011F80002FA03F3DB43BA691340BB613B685B68DF
:101208001B0903F00102FB6902FA03F3BA691343ED
:10121800BB617B68BA695A607B68DB68BB61FB6944
:101228005B00032202FA03F3DB43BA691340BB6194
:101238003B689A68FB695B0002FA03F3BA691343D7
:10124800BB617B68BA69DA603B685B68022B03D0D4
:101258003B685B68122B23D1FB69DA087B6808328C
:1012680053F82230BB61FB6903F007039B000F2290
:1012780002FA03F3DB43BA691340BB613B681A699E
:10128800FB6903F007039B0002FA03F3BA691343EF
:10129800BB61FB69DA087B680832B96943F8221038
:1012A8007B681B68BB61FB695B00032202FA03F3DE
:1012B800DB43BA691340BB613B685B6803F0030218
:1012C800FB695B0002FA03F3BA691343BB617B68ED
:1012D800BA691A603B685B6803F08053002B00F022
:1012E800B4800023FB60604B5B6C5F4A43F480432F
:1012F80053645D4B5B6C03F48043FB60FB685B4AA3
:10130800FB699B08023352F82330BB61FB6903F089
:1013180003039B000F2202FA03F3DB43BA6913406D
:10132800BB617B68524A93422BD07B68514A9342F7
:1013380025D07B68504A93421FD07B684F4A93421E
:1013480019D07B684E4A934213D07B684D4A93422A
:101358000DD07B684C4A934207D07B684B4A934236
:1013680001D107230EE008230CE006230AE0052339
:1013780008E0042306E0032304E0022302E001233B
:1013880000E00023FA6902F0030292009340BA6970
:101398001343BB613549FB699B080233BA6941F8BD
:1013A80023203B4B1B68BB613B69DB43BA69134095
:1013B800BB613B685B6803F48033002B03D0BA69D8
:1013C8003B691343BB61324ABB691360304B5B68AE
:1013D800BB613B69DB43BA691340BB613B685B682F
:1013E80003F40033002B03D0BA693B691343BB6194
:1013F800274ABB695360264B9B68BB613B69DB434B
:10140800BA691340BB613B685B6803F48013002B27
:1014180003D0BA693B691343BB611D4ABB6993603A
:101428001B4BDB68BB613B69DB43BA691340BB619B
:101438003B685B6803F40013002B03D0BA693B696F
:101448001343BB61124ABB69D360FB690133FB617B
:10145800FB690F2B7FF690AE00BF00BF2437BD4657
:101468005DF8047B704700BF003802400038014037
:10147800000002400004024000080240000C024044
:10148800001002400014024000180240001C0240F4
:10149800003C014080B485B000AF78600B467B808B
:1014A8007B681A697B881340002B02D00123FB73E9
:1014B80001E00023FB73FB7B18461437BD465DF83B
:1014C800047B704780B483B000AF78600B467B80A4
:1014D80013467B707B78002B03D07A887B689A61EF
:1014E80003E07B881A047B689A6100BF0C37BD460D
:1014F8005DF8047B7047000080B584B000AF786069
:101508007B68002B01D101232BE17B6893F83D30E8
:10151800DBB2002B06D17B68002283F83C20786878
:10152800FFF7B8FB7B68242283F83D207B681B68A3
:101538001A687B681B6822F001021A607B681B68C6
:101548001A687B681B6842F400421A607B681B6853
:101558001A687B681B6822F400421A6002F0D8FE01
:10156800F8607B685B68814A934207D8FB68804AC9
:10157800934294BF01230023DBB206E0FB687D4A57
:10158800934294BF01230023DBB2002B01D0012337
:10159800E7E0FB68784AA2FB03239B0CBB607B68EF
:1015A8001B685B6823F03F017B681B68BA680A43C5
:1015B8005A607B681B681B6A23F03F017B685B6885
:1015C8006A4A934202D8BB68013309E0BB684FF40A
:1015D800967202FB03F3694AA2FB03239B090133BA
:1015E8007A6812680B4313627B681B68DB6923F413
:1015F8004F4222F0FF027B685B685C498B4219D836
:10160800FB68591E7B685B685B00B1FBF3F3591CF0
:1016180040F6FC730B40002B0AD0FB68591E7B6810
:101628005B685B00B1FBF3F30133C3F30B0351E0D9
:1016380004234FE07B689B68002B11D1FB68581E80
:101648007B6859680B465B000B44B0FBF3F301332E
:10165800C3F30B03002B0CBF01230023DBB212E002
:10166800FB68581E7B6859680B469B000B44990021
:101678000B44B0FBF3F30133C3F30B03002B0CBF94
:1016880001230023DBB2002B01D0012322E07B6879
:101698009B68002B0ED1FB68581E7B6859680B4667
:1016A8005B000B44B0FBF3F30133C3F30B0343F4C8
:1016B80000430FE0FB68581E7B6859680B469B0087
:1016C8000B4499000B44B0FBF3F30133C3F30B0352
:1016D80043F44043796809681343CB617B681B680E
:1016E8001B6823F0C0017B68DA697B681B6A1A43B0
:1016F8007B681B680A431A607B681B689B6823F435
:10170800034323F0FF037A6811697A68D2681143AA
:101718007A6812680B4393607B681B68DB6823F068
:10172800FF017B685A697B689B691A437B681B6861
:101738000A43DA607B681B681A687B681B6842F09A
:1017480001021A607B6800221A647B68202283F8F1
:101758003D207B6800221A637B68002283F83E20C4
:10176800002318461037BD4680BD00BFA086010083
:101778007F841E00FF083D0083DE1B43D34D6210AB
:1017880080B588B002AFF8607A601A460B467B8154
:1017980013463B81FFF7A0FB7861FB6893F83D3067
:1017A800DBB2202B40F0E0807B69009319230122F3
:1017B8007049F86800F0E8FD0346002B01D00223C9
:1017C800D3E0FB6893F83C30012B01D10223CCE035
:1017D800FB68012283F83C20FB681B681B6803F048
:1017E8000103012B07D0FB681B681A68FB681B689C
:1017F80042F001021A60FB681B681A68FB681B68E4
:1018080022F400621A60FB68212283F83D20FB68FD
:10181800102283F83E20FB6800221A64FB687A686D
:101828005A62FB683A895A85FB685B8D9AB2FB68F5
:101838001A85FB68504ADA6279897B693A6AF868DE
:1018480000F0BCFB0346002B01D001238DE00023F0
:101858003B61FB681B685B693B61FB681B689B69B4
:101868003B613B6966E07A69396AF86800F062FEB4
:101878000346002B0DD0FB681B6C042B07D1FB68BB
:101888001B681A68FB681B6842F400721A6001231F
:101898006BE0FB685B6A1A78FB681B681A61FB6877
:1018A8005B6A5A1CFB685A62FB685B8D9BB2013B02
:1018B8009AB2FB685A85FB681B8D013B9AB2FB689C
:1018C8001A85FB681B685B6903F00403042B1BD1B2
:1018D800FB681B8D002B17D0FB685B6A1A78FB68C6
:1018E8001B681A61FB685B6A5A1CFB685A62FB68D2
:1018F8005B8D9BB2013B9AB2FB685A85FB681B8DD6
:10190800013B9AB2FB681A857A69396AF86800F06F
:1019180052FE0346002B0DD0FB681B6C042B07D12D
:10192800FB681B681A68FB681B6842F400721A603F
:1019380001231AE0FB681B8D002B94D1FB681B6800
:101948001A68FB681B6842F400721A60FB68202260
:1019580083F83D20FB68002283F83E20FB680022C4
:1019680083F83C20002300E0022318461837BD46C0
:1019780080BD00BF020010000000FFFF80B58CB0E2
:1019880002AFF8607A601A460B467B8113463B81AA
:10199800FFF7A2FA7862FB6893F83D30DBB2202BA0
:1019A80040F00B827B6A0093192301227C49F86876
:1019B80000F0EAFC0346002B01D00223FEE1FB689D
:1019C80093F83C30012B01D10223F7E1FB68012297
:1019D80083F83C20FB681B681B6803F00103012B9C
:1019E80007D0FB681B681A68FB681B6842F0010295
:1019F8001A60FB681B681A68FB681B6822F400629F
:101A08001A60FB68222283F83D20FB68102283F8C5
:101A18003E20FB6800221A64FB687A685A62FB68F9
:101A28003A895A85FB685B8D9AB2FB681A85FB6810
:101A38005C4ADA6279897B6A3A6BF86800F040FBA5
:101A48000346002B01D00123B8E1FB681B8D002B56
:101A580013D100233B62FB681B685B693B62FB6830
:101A68001B689B693B623B6AFB681B681A68FB68DA
:101A78001B6842F400721A608CE1FB681B8D012B15
:101A88001BD1FB681B681A68FB681B6822F480621C
:101A98001A600023FB61FB681B685B69FB61FB68DC
:101AA8001B689B69FB61FB69FB681B681A68FB681C
:101AB8001B6842F400721A606CE1FB681B8D022BF4
:101AC8001BD1FB681B681A68FB681B6822F48062DC
:101AD8001A60FB681B681A68FB681B6842F400629E
:101AE8001A600023BB61FB681B685B69BB61FB680C
:101AF8001B689B69BB61BB694CE1FB681B681A6882
:101B0800FB681B6842F480621A6000237B61FB68F3
:101B18001B685B697B61FB681B689B697B617B69F0
:101B280038E1FB681B8D032B00F2F180FB681B8DED
:101B3800012B23D17A6A396BF86800F07DFD0346E2
:101B4800002B01D0012339E1FB681B681A69FB6887
:101B58005B6AD2B21A70FB685B6A5A1CFB685A62ED
:101B6800FB681B8D013B9AB2FB681A85FB685B8D8D
:101B78009BB2013B9AB2FB685A850BE1FB681B8D4F
:101B8800022B4ED17B6A00933B6B00220649F86812
:101B980000F0FAFB0346002B08D001230EE100BF3A
:101BA800020010000000FFFF04000100FB681B6832
:101BB8001A68FB681B6842F400721A60FB681B68AD
:101BC8001A69FB685B6AD2B21A70FB685B6A5A1CB6
:101BD800FB685A62FB681B8D013B9AB2FB681A8549
:101BE800FB685B8D9BB2013B9AB2FB685A85FB6828
:101BF8001B681A69FB685B6AD2B21A70FB685B6A79
:101C08005A1CFB685A62FB681B8D013B9AB2FB6841
:101C18001A85FB685B8D9BB2013B9AB2FB685A85BB
:101C2800B8E07B6A00933B6B00226649F86800F0D5
:101C3800ABFB0346002B01D00123BFE0FB681B6808
:101C48001A68FB681B6822F480621A60FB681B68CC
:101C58001A69FB685B6AD2B21A70FB685B6A5A1C25
:101C6800FB685A62FB681B8D013B9AB2FB681A85B8
:101C7800FB685B8D9BB2013B9AB2FB685A857B6A15
:101C880000933B6B00224F49F86800F07DFB034648
:101C9800002B01D0012391E0FB681B681A68FB68E0
:101CA8001B6842F400721A60FB681B681A69FB68BB
:101CB8005B6AD2B21A70FB685B6A5A1CFB685A628C
:101CC800FB681B8D013B9AB2FB681A85FB685B8D2C
:101CD8009BB2013B9AB2FB685A85FB681B681A697C
:101CE800FB685B6AD2B21A70FB685B6A5A1CFB68B5
:101CF8005A62FB681B8D013B9AB2FB681A85FB6828
:101D08005B8D9BB2013B9AB2FB685A8542E07A6AC6
:101D1800396BF86800F090FC0346002B01D00123D2
:101D28004CE0FB681B681A69FB685B6AD2B21A70E0
:101D3800FB685B6A5A1CFB685A62FB681B8D013B97
:101D48009AB2FB681A85FB685B8D9BB2013B9AB21D
:101D5800FB685A85FB681B685B6903F00403042B66
:101D680018D1FB681B681A69FB685B6AD2B21A70E3
:101D7800FB685B6A5A1CFB685A62FB681B8D013B57
:101D88009AB2FB681A85FB685B8D9BB2013B9AB2DD
:101D9800FB685A85FB681B8D002B7FF4C2AEFB687D
:101DA800202283F83D20FB68002283F83E20FB6850
:101DB800002283F83C20002300E00223184628373D
:101DC800BD4680BD0400010080B588B002AFF86050
:101DD800084611461A4603467B810B463B8113464B
:101DE800FB80FFF779F87861FB6893F83D30DBB248
:101DF800202B40F0D9807B690093192301226D497B
:101E0800F86800F0C1FA0346002B01D00223CCE0A9
:101E1800FB6893F83C30012B01D10223C5E0FB6835
:101E2800012283F83C20FB681B681B6803F0010350
:101E3800012B07D0FB681B681A68FB681B6842F017
:101E480001021A60FB681B681A68FB681B6822F4A9
:101E580000621A60FB68212283F83D20FB6840225B
:101E680083F83E20FB6800221A64FB683A6A5A62CB
:101E7800FB68BA8C5A85FB685B8D9AB2FB681A8539
:101E8800FB684D4ADA62F8883A8979897B69019357
:101E9800BB6A00930346F86800F0E0F90346002B9C
:101EA80052D0012381E07A69B96AF86800F042FBF0
:101EB8000346002B0DD0FB681B6C042B07D1FB6875
:101EC8001B681A68FB681B6842F400721A600123D9
:101ED8006BE0FB685B6A1A78FB681B681A61FB6831
:101EE8005B6A5A1CFB685A62FB681B8D013B9AB2FD
:101EF800FB681A85FB685B8D9BB2013B9AB2FB6855
:101F08005A85FB681B685B6903F00403042B1BD12B
:101F1800FB681B8D002B17D0FB685B6A1A78FB687F
:101F28001B681A61FB685B6A5A1CFB685A62FB688B
:101F38001B8D013B9AB2FB681A85FB685B8D9BB2CF
:101F4800013B9AB2FB685A85FB681B8D002BAAD10E
:101F58007A69B96AF86800F02EFB0346002B0DD0A9
:101F6800FB681B6C042B07D1FB681B681A68FB68AD
:101F78001B6842F400721A60012316E0FB681B68B4
:101F88001A68FB681B6842F400721A60FB6820221A
:101F980083F83D20FB68002283F83E20FB6800227E
:101FA80083F83C20002300E0022318461837BD467A
:101FB80080BD00BF020010000000FFFF80B588B0A0
:101FC80002AFF8607A603B600B467B81FB68DB6A96
:101FD8007B617B69082B06D07B69012B03D07B6969
:101FE80013F5803F08D1FB681B681A68FB681B68FB
:101FF80042F480721A600BE0FB681B6B122B07D14E
:10200800FB681B681A68FB681B6842F480721A60D8
:102018003B6800937B6800224FF00111F86800F0DC
:10202800B3F90346002B0DD0FB681B681B6803F44B
:102038008073B3F5807F03D1FB684FF400721A6494
:10204800032335E0FB681B69B3F5804F08D17B8912
:10205800DBB21A46FB681B6802F0FE021A611BE03D
:102068007B89DB11DBB203F00603DBB263F00F03FD
:10207800DAB2FB681B681A613B687A680E49F8682F
:1020880000F0D9F90346002B01D0012310E07B8929
:10209800DAB2FB681B681A613B687A680749F86816
:1020A80000F0C9F90346002B01D0012300E000230A
:1020B80018461837BD4680BD08000100020001001F
:1020C80080B588B002AFF8607A603B600B467B81D0
:1020D800FB68DB6A7B61FB681B681A68FB681B6826
:1020E80042F480621A607B69082B06D07B69012B59
:1020F80003D07B6913F5803F08D1FB681B681A6819
:10210800FB681B6842F480721A600BE0FB681B6B6B
:10211800112B07D1FB681B681A68FB681B6842F41F
:1021280080721A603B6800937B6800224FF00111AF
:10213800F86800F029F90346002B0DD0FB681B68EE
:102148001B6803F48073B3F5807F03D1FB684FF4F9
:1021580000721A64032379E0FB681B69B3F5804FAA
:1021680008D17B89DBB243F00103DAB2FB681B6854
:102178001A615FE07B89DB11DBB203F00603DBB297
:1021880063F00F03DAB2FB681B681A613B687A6870
:102198003049F86800F04FF90346002B01D00123BD
:1021A80054E07B89DAB2FB681B681A613B687A687D
:1021B8002949F86800F03FF90346002B01D00123B4
:1021C80044E000233B61FB681B685B693B61FB687B
:1021D8001B689B693B613B69FB681B681A68FB6865
:1021E8001B6842F480721A603B6800937B68002287
:1021F8004FF00111F86800F0C7F80346002B0DD026
:10220800FB681B681B6803F48073B3F5807F03D1F8
:10221800FB684FF400721A64032317E07B89DB1113
:10222800DBB203F00603DBB263F00E03DAB2FB683D
:102238001B681A613B687A680749F86800F0FBF880
:102248000346002B01D0012300E00023184618376D
:10225800BD4680BD080001000200010080B588B0BD
:1022680002AFF860084611461A4603467B810B46C2
:102278003B811346FB80FB681B681A68FB681B6878
:1022880042F480721A607B6A00933B6A00224FF026
:102298000111F86800F078F80346002B0DD0FB68B0
:1022A8001B681B6803F48073B3F5807F03D1FB6858
:1022B8004FF400721A6403235FE07B89DBB21A468D
:1022C800FB681B6802F0FE021A617B6A3A6A2D49B4
:1022D800F86800F0B0F80346002B01D001234CE069
:1022E80000237B61FB681B685B697B61FB681B687B
:1022F8009B697B617B697A6A396AF86800F01AF928
:102308000346002B0DD0FB681B6C042B07D1FB6820
:102318001B681A68FB681B6842F400721A60012384
:102328002BE0FB88012B05D13B89DAB2FB681B68DF
:102338001A6121E03B891B0A9BB2DAB2FB681B6871
:102348001A617A6A396AF86800F0F4F80346002BD3
:102358000DD0FB681B6C042B07D1FB681B681A683F
:10236800FB681B6842F400721A60012305E03B8990
:10237800DAB2FB681B681A61002318461837BD4695
:1023880080BD00BF0200010080B584B000AFF860D6
:10239800B9603B601346FB7125E03B68B3F1FF3F32
:1023A80021D0FEF799FD0246BB69D31A3A689A42D2
:1023B80002D33B68002B16D1FB6800221A63FB6826
:1023C800202283F83D20FB68002283F83E20FB682A
:1023D8001B6C43F02002FB681A64FB68002283F838
:1023E8003C20012323E0BB681B0CDBB2012B0DD181
:1023F800FB681B685B69DA43BB6813409BB2002B20
:102408000CBF01230023DBB21A460CE0FB681B68F3
:102418009B69DA43BB6813409BB2002B0CBF0123B6
:102428000023DBB21A46FB799A42B6D0002318463D
:102438001037BD4680BD80B584B000AFF860B96084
:102448007A603B6051E0FB681B685B6903F480635A
:10245800B3F5806F23D1FB681B681A68FB681B689B
:1024680042F400721A60FB681B686FF480625A615C
:10247800FB6800221A63FB68202283F83D20FB6872
:10248800002283F83E20FB681B6C43F00402FB68C3
:102498001A64FB68002283F83C20012346E07B682D
:1024A800B3F1FF3F21D0FEF717FD02463B68D31A70
:1024B8007A689A4202D37B68002B16D1FB68002207
:1024C8001A63FB68202283F83D20FB68002283F80A
:1024D8003E20FB681B6C43F02002FB681A64FB6813
:1024E800002283F83C20012320E0BB681B0CDBB2F0
:1024F800012B0CD1FB681B685B69DA43BB6813408E
:102508009BB2002B14BF01230023DBB20BE0FB6856
:102518001B689B69DA43BB6813409BB2002B14BF4E
:1025280001230023DBB2002B8DD10023184610377E
:10253800BD4680BD80B584B000AFF860B9607A60F0
:102548002DE0F86800F0CEF80346002B01D00123F7
:102558002DE0BB68B3F1FF3F21D0FEF7BDFC02467A
:102568007B68D31ABA689A4202D3BB68002B16D18B
:10257800FB6800221A63FB68202283F83D20FB6871
:10258800002283F83E20FB681B6C43F02002FB68A6
:102598001A64FB68002283F83C20012307E0FB68EB
:1025A8001B685B6903F08003802BCAD1002318469F
:1025B8001037BD4680BD80B584B000AFF860B96003
:1025C8007A602DE0F86800F08DF80346002B01D002
:1025D80001232DE0BB68B3F1FF3F21D0FEF77CFC5F
:1025E80002467B68D31ABA689A4202D3BB68002BAA
:1025F80016D1FB6800221A63FB68202283F83D206D
:10260800FB68002283F83E20FB681B6C43F0200225
:10261800FB681A64FB68002283F83C20012307E06A
:10262800FB681B685B6903F00403042BCAD1002311
:1026380018461037BD4680BD80B584B000AFF8603D
:10264800B9607A6042E0FB681B685B6903F01003BD
:10265800102B19D1FB681B686FF010025A61FB68D8
:1026680000221A63FB68202283F83D20FB680022C1
:1026780083F83E20FB681A6CFB681A64FB6800222A
:1026880083F83C20012329E0FEF726FC02467B68FC
:10269800D31ABA689A4202D3BB68002B16D1FB68DA
:1026A80000221A63FB68202283F83D20FB68002281
:1026B80083F83E20FB681B6C43F02002FB681A6419
:1026C800FB68002283F83C20012307E0FB681B68B5
:1026D8005B6903F04003402BB5D10023184610373F
:1026E800BD4680BD80B483B000AF78607B681B684E
:1026F8005B6903F48063B3F5806F1BD17B681B684B
:102708006FF480625A617B6800221A637B6820221A
:1027180083F83D207B68002283F83E207B681B6C91
:1027280043F004027B681A647B68002283F83C202B
:10273800012300E0002318460C37BD465DF8047BF2
:102748007047F0B58FB00AAF78607B68002B01D175
:1027580001230FE17B681B68BB607B6893F8BD337E
:10276800DBB2002B06D17B68002283F8BC23786893
:1027780004F02EFF7B68032283F8BD23BB68DB6B64
:1027880003F48073002B02D17B6800221A617B68F6
:102798001B68184601F0E5FE7B681B683B607E6895
:1027A8006D4606F110040FCC0FC50FCC0FC594E889
:1027B800030085E80300331D0ECB386801F0BCFD2B
:1027C8000346002B05D07B68022283F8BD23012332
:1027D800D0E07B681B680021184601F0D3FE002377
:1027E800FB734AE0FA7B79681346DB009B1A9B006F
:1027F8000B443D3301221A70FA7B79681346DB00DB
:102808009B1A9B000B443C33FA7B1A70FA7BFB7BC8
:1028180098B279681346DB009B1A9B000B4442333D
:1028280002461A80FA7B79681346DB009B1A9B00E4
:102838000B443F3300221A70FA7B79681346DB0099
:102848009B1A9B000B44443300221A60FA7B796878
:102858001346DB009B1A9B000B44483300221A6086
:10286800FA7B79681346DB009B1A9B000B445033B4
:1028780000221A60FB7B0133FB73FA7B7B685B6881
:102888009A42AFD30023FB7344E0FA7B796813467E
:10289800DB009B1A9B000B4403F2FD1300221A7005
:1028A800FA7B79681346DB009B1A9B000B4403F5FF
:1028B800FE73FA7B1A70FA7B79681346DB009B1A61
:1028C8009B000B4403F2FF1300221A70FA7B79680D
:1028D8001346DB009B1A9B000B4403F5017300228F
:1028E8001A60FA7B79681346DB009B1A9B000B443D
:1028F80003F5027300221A60FA7B79681346DB003D
:102908009B1A9B000B4403F5047300221A60FB7B9F
:102918000133FB73FA7B7B685B689A42B5D37B68AB
:102928001B683B607E686D4606F110040FCC0FC52E
:102938000FCC0FC594E8030085E80300331D0ECBC8
:10294800386801F049FE0346002B05D07B68022257
:1029580083F8BD2301230DE07B68002283F838202B
:102968007B68012283F8BD237B681B68184602F048
:1029780091FE002318461437BD46F0BD80B584B0DB
:1029880000AF78607B681B68FB607B6893F8BC339A
:10299800012B01D1022320E07B68012283F8BC23AC
:1029A8007B689B6A012B09D17B689B69012B05D049
:1029B800FB689B6B43F48032FB689A637B681B68F7
:1029C800184601F0BDFD7B681B68184602F041FE01
:1029D8007B68002283F8BC23002318461037BD46C5
:1029E80080BD90B58DB000AF78607B681B683B6296
:1029F8003B6AFB617B681B68184602F0FFFE0346D2
:102A0800002B40F09D837B681B68184602F063FE2C
:102A18000346002B00F093837B681B68184602F07E
:102A28005AFE034603F00203022B07D17B681B689A
:102A38005A697B681B6802F002025A617B681B684E
:102A4800184602F048FE034603F01003102B61D12C
:102A58007B681B689A697B681B6822F010029A6180
:102A68003B6A1B6ABB61BB6903F00F021346DB00BC
:102A78009B1A9B0003F5FC737A68134404337B614B
:102A8800BB695B0C03F00F03022B24D1BA6947F62C
:102A9800F0731340002B35D07B69D968BB691B09DB
:102AA8009BB2C3F30A039BB21A46386A02F0AEFC23
:102AB8007B69DA68BB691B09C3F30A031A447B699B
:102AC800DA607B699A69BB691B09C3F30A031A4474
:102AD8007B699A6116E0BB695B0C03F00F03062B58
:102AE80010D17B6803F5717308221946386A02F021
:102AF8008DFC7B699A69BB691B09C3F30A031A44F5
:102B08007B699A617B681B689A697B681B6842F0DD
:102B180010029A617B681B68184602F0DCFD0346C8
:102B280003F40023B3F5002F6ED100237B627B688A
:102B38001B68184602F0E2FDB86262E0BB6A03F067
:102B48000103002B57D07B681B687A6AD2B2114602
:102B5800184602F007FE38613B6903F00103002BB9
:102B68000CD07B6A5A01FB69134403F530631A469B
:102B780001239360796A786800F0B0FD3B6903F03F
:102B88000803002B0CD07B6A5A01FB69134403F538
:102B980030631A4608239360796A786800F0AAFEC1
:102BA8003B6903F01003002B08D07B6A5A01FB69CC
:102BB800134403F530631A46102393603B6903F00E
:102BC8002003002B08D07B6A5A01FB69134403F5E4
:102BD80030631A46202393603B6903F40053002BAB
:102BE80009D07B6A5A01FB69134403F530631A461E
:102BF8004FF4005393607B6A01337B62BB6A5B08C6
:102C0800BB62BB6A002B99D17B681B68184602F02F
:102C180062FD034603F48023B3F5802F40F0C080A3
:102C28007B681B68184602F083FDB86200237B624C
:102C3800B2E0BB6A03F00103002B00F0A7807B68B9
:102C48001B687A6AD2B21146184602F0A9FD3861AB
:102C58003B6903F00103002B57D07B6A03F00F0395
:102C6800012202FA03F3FB60FB6903F500635A6B68
:102C7800FB68DB43F96901F5006113404B637B6A2C
:102C88005A01FB69134403F510631A460123936044
:102C98007B681B69012B32D179687A6A1346DB009D
:102CA8009B1A9B000B444833196878687A6A134664
:102CB800DB009B1A9B00034444331B681944786863
:102CC8007A6A1346DB009B1A9B0003444833196059
:102CD8007B6A002B13D179687A6A1346DB009B1A4A
:102CE8009B000B4450331B68002B08D17B68186885
:102CF8007B6803F571731A46012102F0B1FD7B6A06
:102D0800DBB21946786804F0E4FC3B6903F0080379
:102D1800002B08D07B6A5A01FB69134403F5106342
:102D28001A46082393603B6903F01003002B08D070
:102D38007B6A5A01FB69134403F510631A46102392
:102D480093603B6903F04003002B08D07B6A5A016B
:102D5800FB69134403F510631A46402393603B69EB
:102D680003F00203002B08D07B6A5A01FB69134465
:102D780003F510631A46022393603B6903F080034E
:102D8800002B03D0796A786800F01BFC7B6A01335A
:102D98007B62BB6A5B08BB62BB6A002B7FF449AFEE
:102DA8007B681B68184602F096FC034603F0004354
:102DB800B3F1004F22D1FB6903F500635B68FA6940
:102DC80002F5006223F0010353607B6893F8F43343
:102DD800012B08D17B68002283F8F423002178684E
:102DE80000F026FE02E0786804F0EAFC7B681B68C5
:102DF8005A697B681B6802F000425A617B681B684D
:102E0800184602F068FC034603F40063B3F5006F4C
:102E180012D1FB6903F500639B6803F00103012BE2
:102E280002D1786804F0A6FC7B681B685A697B6845
:102E38001B6802F400625A617B681B68184602F03E
:102E48004AFC034603F48053B3F5805F40F0C78023
:102E5800FB6903F500635B68FA6902F5006223F019
:102E6800010353607B681B681021184601F018FDA8
:102E78000023FB6256E0FB6A5A01FB69134403F521
:102E880010631A464FF67F339360FB6A5A01FB6959
:102E9800134403F510631B68FA6A5101FA690A447E
:102EA80002F5106223F400131360FB6A5A01FB69F0
:102EB800134403F510631B68FA6A5101FA690A445E
:102EC80002F5106243F000631360FB6A5A01FB6964
:102ED800134403F530631A464FF67F339360FB6A59
:102EE8005A01FB69134403F530631B68FA6A510100
:102EF800FA690A4402F5306223F400131360FB6A8E
:102F08005A01FB69134403F530631B68FA6A5101DF
:102F1800FA690A4402F5306243F000631360FB6A01
:102F28000133FB627B685B68FA6A9A42A3D3FB6948
:102F380003F50063DB69FA6902F5006243F00113E7
:102F4800D3617B681B6B002B16D0FB6903F500630C
:102F5800D3F88430FA6902F5006243F00B03C2F833
:102F68008430FB6903F500635B6CFA6902F5006263
:102F780043F00B03536415E0FB6903F500635B69D9
:102F8800FA6902F5006243F4005343F02B035361DE
:102F9800FB6903F500631B69FA6902F5006243F0F7
:102FA8000B031361FB6903F500631B68FA6902F5FB
:102FB800006223F4FE6313607B6818687B681B69F2
:102FC800D9B27B6803F571731A4602F049FC7B6835
:102FD8001B685A697B681B6802F480525A617B68D7
:102FE8001B68184602F077FB034603F40053B3F559
:102FF800005F24D17B681B68184602F00DFC7B68D3
:103008001B68184601F0ADFC03461A467B68DA6077
:103018007B681C6801F070F901467B68DB68DBB2ED
:103028001A46204601F0EAF9786804F07AFB7B68D2
:103038001B685A697B681B6802F400525A617B68F6
:103048001B68184602F047FB034603F00803082BE9
:103058000AD1786804F057FB7B681B685A697B685B
:103068001B6802F008025A617B681B68184602F068
:1030780032FB034603F48013B3F5801F0FD10023FE
:103088007B627B6ADBB21946786804F0B9FB7B681F
:103098001B685A697B681B6802F480125A617B6856
:1030A8001B68184602F017FB034603F40013B3F538
:1030B800001F0FD100237B627B6ADBB21946786858
:1030C80004F08CFB7B681B685A697B681B6802F4F8
:1030D80000125A617B681B68184602F0FCFA034626
:1030E80003F08043B3F1804F0AD1786804F09AFB6B
:1030F8007B681B685A697B681B6802F080425A61CA
:103108007B681B68184602F0E6FA034603F00403DE
:10311800042B15D17B681B685B68BB61BB6903F036
:103128000403002B02D0786804F08AFB7B681B68D4
:1031380059687B681B68BA690A435A6000E000BF97
:103148003437BD4690BD80B582B000AF78600B467D
:10315800FB707B6893F8BC33012B01D1022313E089
:103168007B68012283F8BC237B68FA7883F83820CF
:103178007B681B68FA781146184602F044FA7B68A7
:10318800002283F8BC23002318460837BD4680BDBB
:1031980080B584B000AF7860084611461A460346E9
:1031A800FB700B463B801346BB700023FB7297F9FC
:1031B8000330002B0FDAFB7803F00F021346DB0015
:1031C8009B1A9B0038337A6813440433FB60FB680E
:1031D80001225A700FE0FB7803F00F021346DB0060
:1031E8009B1A9B0003F5FC737A6813440433FB6055
:1031F800FB6800225A70FB7803F00F03DAB2FB6811
:103208001A703A88FB689A60FB68BA78DA70FB68CB
:103218005B78002B04D0FB681B789AB2FB68DA80D5
:10322800BB78022B02D1FB6800221A717B6893F8E5
:10323800BC33012B01D102230EE07B68012283F805
:10324800BC237B681B68F968184601F0AFFB7B68F4
:10325800002283F8BC23FB7A18461037BD4680BD90
:1032680080B584B000AF78600B46FB7097F90330E7
:10327800002B0FDAFB7803F00F021346DB009B1AD2
:103288009B0038337A6813440433FB60FB680122DF
:103298005A700FE0FB7803F00F021346DB009B1A0D
:1032A8009B0003F5FC737A6813440433FB60FB68E6
:1032B80000225A70FB7803F00F03DAB2FB681A7029
:1032C8007B6893F8BC33012B01D102230EE07B68A5
:1032D800012283F8BC237B681B68F968184601F053
:1032E800EDFB7B68002283F8BC23002318461037C7
:1032F800BD4680BD80B586B000AFF8607A603B609F
:103308000B46FB72FB7A03F00F021346DB009B1A95
:103318009B0003F5FC73FA68134404337B617B69F3
:103328007A68DA607B693A685A617B6900229A6137
:103338007B6900225A70FB7A03F00F03DAB27B69CB
:103348001A70FB681B69012B02D17A687B691A61C4
:10335800FB7A03F00F03002B09D1FB681868FB68A0
:103368001B69DBB21A46796901F0C8FE08E0FB6800
:103378001868FB681B69DBB21A46796901F07AFCA8
:10338800002318461837BD4680BD80B483B000AF0F
:1033980078600B46FB70FB7803F00F0279681346E0
:1033A800DB009B1A9B000B4403F505731B6818464A
:1033B8000C37BD465DF8047B704780B586B000AF1A
:1033C800F8607A603B600B46FB72FB7A03F00F02F1
:1033D8001346DB009B1A9B003833FA681344043306
:1033E8007B617B697A68DA607B693A685A617B69D4
:1033F80000229A617B6901225A70FB7A03F00F035D
:10340800DAB27B691A70FB681B69012B02D17A68F2
:103418007B691A61FB7A03F00F03002B09D1FB6863
:103428001868FB681B69DBB21A46796901F066FE09
:1034380008E0FB681868FB681B69DBB21A46796903
:1034480001F018FC002318461837BD4680BD80B52A
:1034580084B000AF78600B46FB70FB7803F00F0276
:103468007B685B689A4201D9012350E097F90330E1
:10347800002B0FDAFB7803F00F021346DB009B1AD0
:103488009B0038337A6813440433FB60FB680122DD
:103498005A700DE0FA781346DB009B1A9B0003F57F
:1034A800FC737A6813440433FB60FB6800225A708B
:1034B800FB6801229A70FB7803F00F03DAB2FB680D
:1034C8001A707B6893F8BC33012B01D102231EE0EC
:1034D8007B68012283F8BC237B681B68F96818465F
:1034E80001F0BDFFFB7803F00F03002B0AD17B68C6
:1034F80018687B681B69D9B27B6803F571731A4633
:1035080002F0AEF97B68002283F8BC23002318463A
:103518001037BD4680BD80B584B000AF78600B46DB
:10352800FB70FB7803F00F027B685B689A4201D955
:10353800012342E097F90330002B0FDAFB7803F000
:103548000F021346DB009B1A9B0038337A6813443A
:103558000433FB60FB6801225A700FE0FB7803F02C
:103568000F021346DB009B1A9B0003F5FC737A6875
:1035780013440433FB60FB6800225A70FB68002286
:103588009A70FB7803F00F03DAB2FB681A707B6855
:1035980093F8BC33012B01D102230EE07B68012292
:1035A80083F8BC237B681B68F968184601F0C5FFDF
:1035B8007B68002283F8BC23002318461037BD46D9
:1035C80080BD80B58AB002AF786039607B681B68BF
:1035D8007B617B693B613A681346DB009B1A9B0061
:1035E80038337A6813440433FB60FB689A69FB68D4
:1035F8005B699A4201D901236CE0FB685A69FB6850
:103608009B69D31AFB61FB689B68FA699A4202D9E5
:10361800FB689B68FB61FB6903339B08BB612BE07C
:10362800FB685A69FB689B69D31AFB61FB689B6856
:10363800FA699A4202D9FB689B68FB61FB6903330C
:103648009B08BB61FB68D9683B68DAB2FB6998B232
:103658007B681B69DBB200930346786901F0A1FE21
:10366800FB68DA68FB691A44FB68DA60FB689A69E8
:10367800FB691A44FB689A613B685A013B69134429
:1036880003F510639B699BB2BA699A4209D8FB6833
:103698009A69FB685B699A4203D2FB685B69002BF5
:1036A800BED1FB685A69FB689B699A4211D83B688E
:1036B80003F00F03012202FA03F3BB603B6903F531
:1036C80000635A6BBB68DB43396901F5006113403D
:1036D8004B63002318462037BD4680BD80B586B0B1
:1036E80000AF786039607B681B687B617B693B61F0
:1036F8007B693C3304331B68FB603B685A013B69B8
:10370800134403F530639B68BB607B681B69012B1E
:1037180040F0A080BB6803F00803002B15D0FB68BD
:10372800724A934240F2DD80BB6803F40043002BE9
:1037380000F0D7803B685A013B69134403F53063B6
:103748001A464FF400439360CBE0BB6803F02003B4
:10375800002B09D03B685A013B69134403F53063D9
:103768001A4620239360BCE0BB6803F02803002BB3
:1037780040F0B780FB685D4A93420FD9BB6803F4F9
:103788000043002B0AD03B685A013B69134403F5F8
:1037980030631A464FF400439360A2E079683A68B0
:1037A8001346DB009B1A9B000B4403F501731A6850
:1037B8003B6859013B690B4403F530631B69C3F34C
:1037C8001203D11A78683A681346DB009B1A9B00EB
:1037D800034403F50573196079683A681346DB00FA
:1037E8009B1A9B000B4403F50273196878683A68C2
:1037F8001346DB009B1A9B00034403F501731B6807
:10380800194478683A681346DB009B1A9B00034406
:1038180003F5027319603B68002B14D179683A6884
:103828001346DB009B1A9B000B4403F504731B68CB
:10383800002B08D17B6818687B6803F571731A46FA
:10384800012102F00DF83B68DBB21946786803F0F5
:1038580025FF46E0FB68264A934224D1BB6803F45F
:103868000043002B0AD03B685A013B69134403F517
:1038780030631A464FF40043936032E0BB6803F0AC
:103888002003002B08D03B685A013B69134403F519
:1038980030631A46202393603B68DBB21946786888
:1038A80003F0FCFE1DE03B68002B14D179683A68F0
:1038B8001346DB009B1A9B000B4403F504731B683B
:1038C800002B08D17B6818687B6803F571731A466A
:1038D800002101F0C5FF3B68DBB21946786803F0A8
:1038E800DDFE002318461837BD4680BD0A30544F08
:1038F8000A31544F80B586B000AF786039607B6874
:103908001B687B617B693B617B693C3304331B68C3
:10391800FB603B685A013B69134403F530639B68BD
:10392800BB60FB68154A93420ED9BB6803F4004399
:10393800002B09D03B685A013B69134403F53063F7
:103948001A464FF400439360786803F095FEFB68CD
:103958000A4A93420CD97B681B69012B08D17B6802
:1039680018687B6803F571731A46012101F078FF26
:10397800002318461837BD4680BD00BF0A30544F93
:1039880080B485B000AF78600B46FB7013463B806F
:103998007B681B685B6ABB60FB78002B07D13B88A0
:1039A80019047B681B68BA680A439A6228E07B6836
:1039B8001B689B6A1B0CBA681344BB600023FB732B
:1039C8000DE07B681A68FB7B40339B0013445B68FF
:1039D8001B0CBA681344BB60FB7B0133FB73FA7B97
:1039E800FB78013B9A42ECD33B8818047B68196842
:1039F800FB78013BBA68024340339B000B445A6092
:103A0800002318461437BD465DF8047B704780B420
:103A180083B000AF78600B467B807B681B687A8830
:103A28005A62002318460C37BD465DF8047B704780
:103A380080B483B000AF78600B46FB7000BF0C37D2
:103A4800BD465DF8047B704780B586B000AF7860EE
:103A58007B68002B01D101235EE27B681B6803F0C1
:103A68000103002B75D0884B9B6803F00C03042BD3
:103A78000CD0854B9B6803F00C03082B12D1824BAA
:103A88005B6803F48003B3F5800F0BD17E4B1B6892
:103A980003F40033002B5BD07B685B68002B57D1A5
:103AA800012339E27B685B68B3F5803F06D1764B2A
:103AB8001B68754A43F4803313601DE07B685B68BC
:103AC800B3F5A02F0CD1704B1B686F4A43F48023C9
:103AD80013606D4B1B686C4A43F4803313600BE032
:103AE800694B1B68684A23F480331360664B1B6874
:103AF800654A23F4802313607B685B68002B13D02E
:103B0800FDF7EAF9386108E0FDF7E6F902463B6996
:103B1800D31A642B01D90323FEE15B4B1B6803F422
:103B28000033002BF0D014E0FDF7D6F9386108E037
:103B3800FDF7D2F902463B69D31A642B01D9032356
:103B4800EAE1514B1B6803F40033002BF0D100E08D
:103B580000BF7B681B6803F00203002B63D04A4B4D
:103B68009B6803F00C03002B0BD0474B9B6803F0BA
:103B78000C03082B1CD1444B5B6803F48003002B17
:103B880016D1414B1B6803F00203002B05D07B685C
:103B9800DB68012B01D00123BEE13B4B1B6823F0FE
:103BA800F8027B681B69DB00374913430B603AE076
:103BB8007B68DB68002B20D0344B01221A60FDF7AC
:103BC8008BF9386108E0FDF787F902463B69D31A9B
:103BD800022B01D903239FE12B4B1B6803F002033F
:103BE800002BF0D0284B1B6823F0F8027B681B6978
:103BF800DB00254913430B6015E0244B00221A60B3
:103C0800FDF76AF9386108E0FDF766F902463B6995
:103C1800D31A022B01D903237EE11B4B1B6803F047
:103C28000203002BF0D17B681B6803F00803002B0C
:103C380036D07B685B69002B16D0154B01221A60C1
:103C4800FDF74AF9386108E0FDF746F902463B6995
:103C5800D31A022B01D903235EE10B4B5B6F03F0F0
:103C68000203002BF0D01BE0094B00221A60FDF77D
:103C780033F938610EE0FDF72FF902463B69D31A94
:103C8800022B07D9032347E10038024000004742CE
:103C9800800E4742884B5B6F03F00203002BEAD18A
:103CA8007B681B6803F00403002B00F09780002357
:103CB800FB75814B1B6C03F08053002B0FD1002345
:103CC800BB607D4B1B6C7C4A43F0805313647A4B7A
:103CD8001B6C03F08053BB60BB680123FB75774BFB
:103CE8001B6803F48073002B18D1744B1B68734A4C
:103CF80043F480731360FDF7EFF8386108E0FDF7CF
:103D0800EBF802463B69D31A022B01D9032303E1DE
:103D18006A4B1B6803F48073002BF0D07B689B68A8
:103D2800012B06D1644B1B6F634A43F001031367F1
:103D38001CE07B689B68052B0CD15F4B1B6F5E4AB0
:103D480043F0040313675C4B1B6F5B4A43F00103AA
:103D580013670BE0584B1B6F574A23F00103136797
:103D6800554B1B6F544A23F0040313677B689B6809
:103D7800002B15D0FDF7B0F838610AE0FDF7ACF874
:103D880002463B69D31A41F28832934201D9032390
:103D9800C2E0494B1B6F03F00203002BEED014E086
:103DA800FDF79AF838610AE0FDF796F802463B6994
:103DB800D31A41F28832934201D90323ACE03E4B37
:103DC8001B6F03F00203002BEED1FB7D012B05D105
:103DD800394B1B6C384A23F0805313647B689B690A
:103DE800002B00F09880344B9B6803F00C03082BE1
:103DF8005CD07B689B69022B41D1314B00221A6051
:103E0800FDF76AF8386108E0FDF766F802463B6995
:103E1800D31A022B01D903237EE0274B1B6803F03A
:103E28000073002BF0D17B68DA697B681B6A1A4340
:103E38007B685B6A9B011A437B689B6A5B08013B52
:103E48001B041A437B68DB6A1B061B4913434B6040
:103E58001B4B01221A60FDF73FF8386108E0FDF7B7
:103E68003BF802463B69D31A022B01D9032353E0DE
:103E7800114B1B6803F00073002BF0D04BE0104B84
:103E880000221A60FDF728F8386108E0FDF724F8E9
:103E980002463B69D31A022B01D903233CE0064BA7
:103EA8001B6803F00073002BF0D134E07B689B693A
:103EB800012B07D101232FE0003802400070004099
:103EC80060004742164B5B68FB60FB6803F48002A6
:103ED8007B68DB699A421CD1FB6803F03F027B6870
:103EE8001B6A9A4215D1FA6847F6C07313407A687C
:103EF800526A93420DD1FB6803F440327B689B6A97
:103F08009A4206D1FB6803F070627B68DB6A9A42CA
:103F180001D0012300E0002318461837BD4680BDB4
:103F28000038024080B584B000AF786039607B68A3
:103F3800002B01D10123CCE0684B1B6803F00F0371
:103F48003A689A420CD9654B3A68D2B21A70634BF8
:103F58001B6803F00F033A689A4201D00123B8E0C6
:103F68007B681B6803F00203002B20D07B681B686A
:103F780003F00403002B05D0594B9B68584A43F4BF
:103F8800E05393607B681B6803F00803002B05D09F
:103F9800534B9B68524A43F460439360504B9B6871
:103FA80023F0F0027B689B684D4913438B607B6864
:103FB8001B6803F00103002B44D07B685B68012B6E
:103FC80007D1474B1B6803F40033002B19D1012399
:103FD8007FE07B685B68022B03D07B685B68032B00
:103FE80007D13F4B1B6803F00073002B09D1012355
:103FF8006FE03B4B1B6803F00203002B01D1012348
:1040080067E0374B9B6823F003027B685B683449A1
:1040180013438B60FCF760FFF8600AE0FCF75CFF75
:104028000246FB68D31A41F28832934201D903232E
:104038004FE02B4B9B6803F00C027B685B689B008E
:104048009A42EBD1254B1B6803F00F033A689A425A
:104058000CD2224B3A68D2B21A70204B1B6803F07C
:104068000F033A689A4201D0012332E07B681B684B
:1040780003F00403002B08D0194B9B6823F4E0528B
:104088007B68DB68164913438B607B681B6803F009
:104098000803002B09D0124B9B6823F460427B680D
:1040A8001B69DB000E4913438B6000F021F80246C0
:1040B8000B4B9B681B0903F00F030A49CB5C22FAE0
:1040C80003F3094A1360094B1B681846FCF7C0FE46
:1040D800002318461037BD4680BD00BF003C024093
:1040E80000380240BC9F0008080000200C00002097
:1040F8002DE9B04F94B000AF00237B640023FB642C
:1041080000233B640023BB64794B9B6803F00C03DA
:10411800082B0DD0082B00F2E180002B02D0042BD5
:1041280003D0DBE0734BBB64DBE0724BBB64D8E0CD
:104138006F4B5B6803F03F037B646D4B5B6803F474
:104148008003002B63D06A4B5B689B090022BB632A
:10415800FA63BB6BC3F308033B6300237B63D7E9B4
:104168000C4522462B464FF000004FF00001590144
:1041780041EAD261500102460B462146511A396183
:10418800294663EB01037B614FF000024FF0000307
:10419800D7E904AB59468B01514643EA916351462E
:1041A8008A015146B2EB0108594663EB01094FF009
:1041B80000024FF000034FEAC90343EA58734FEA7D
:1041C800C80290469946234618EB0303BB602B466A
:1041D80049EB0303FB604FF000024FF00003D7E9FF
:1041E800024529468B02214643EA915321468A0219
:1041F800104619467B6C0022BB62FA62D7E90A2393
:10420800FBF7DEFF02460B461346FB6458E0384BCB
:104218005B689B09002218461146C0F308033B62FD
:1042280000237B62D7E9088942464B464FF00000DD
:104238004FF00001590141EAD261500102460B4694
:104248004146B2EB010A494663EB010B4FF000020D
:104258004FF000034FEA8B1343EA9A634FEA8A123E
:10426800B2EB0A0463EB0B054FF000024FF00003BA
:10427800EB0043EA5473E20014461D464346E31834
:104288003B604B4645EB03037B604FF000024FF069
:104298000003D7E9004529468B02214643EA91539A
:1042A80021468A02104619467B6C0022BB61FA61DE
:1042B800D7E90623FBF784FF02460B461346FB6447
:1042C8000B4B5B681B0C03F0030301335B003B647F
:1042D800FA6C3B6CB2FBF3F3BB6402E0054BBB64C6
:1042E80000BFBB6C18465037BD46BDE8B08F00BF55
:1042F800003802400024F40080B400AF034B1B6870
:104308001846BD465DF8047B704700BF08000020D2
:1043180080B500AFFFF7F0FF0246054B9B689B0A8C
:1043280003F007030349CB5C22FA03F3184680BD68
:1043380000380240CC9F000884B080B584B000AF3C
:10434800786007F11C0080E80E003B6B012B22D13E
:104358007B689B6B23F480327B689A637B68DB689D
:1043680023F4840323F040037A68D3607B68DB6816
:1043780023F440127B68DA60FB6C012B05D17B6863
:10438800DB6843F480127B68DA60786801F0C6FA6B
:104398000346FB731AE07B68DB6843F040027B68E6
:1043A800DA60786801F0BAFA0346FB733B6C002BBD
:1043B80006D17B689B6B43F480327B689A6305E087
:1043C8007B689B6B23F480327B689A63BB6A012B02
:1043D8000BD17B689B6843F006027B689A607B6818
:1043E8009B6843F020027B689A60FB7B1846103775
:1043F800BD46BDE8804004B07047000080B487B077
:1044080000AFF860B9601346FB71FB79022B65D1E8
:10441800BB68414A934206D9BB68404A934202D2DC
:104428000F237B6162E0BB683C4A934206D3BB68BA
:104438003B4A934202D20E237B6157E0BB68384A5D
:10444800934206D3BB68374A934202D20D237B615D
:104458004CE0BB68334A934206D3BB68324A934266
:1044680002D80C237B6141E0BB682F4A934206D9EE
:10447800BB682E4A934202D80B237B6136E0BB68A7
:104488002A4A934206D9BB68294A934202D80A238A
:104498007B612BE0BB68264A934206D9BB68254A54
:1044A800934202D209237B6120E0BB68214A9342F0
:1044B80006D3BB68204A934202D808237B6115E0E3
:1044C800BB681D4A934206D9BB681C4A934202D274
:1044D80007237B610AE006237B6107E0FB79002B59
:1044E80002D109237B6101E009237B61FB68DB685A
:1044F80023F47052FB68DA60FB68DA687B699B0218
:1045080003F470531A43FB68DA60002318461C371B
:10451800BD465DF8047B7047BFACD800C0E1E4003D
:104528000024F400807306019F491A01FF2C310111
:104538003FA44C0100366E011FABA6010048E801FC
:1045480080B483B000AF78607B689B6843F0010259
:104558007B689A60002318460C37BD465DF8047BDB
:10456800704780B483B000AF78607B689B6823F0A5
:1045780001027B689A60002318460C37BD465DF837
:10458800047B704780B582B000AF78600B46FB7043
:104598007B68DB6823F0C0427B68DA60FB78012B1C
:1045A80006D17B68DB6843F000527B68DA600BE079
:1045B800FB78002B06D17B68DB6843F080427B6880
:1045C800DA6001E0012303E03220FCF791FC0023CC
:1045D80018460837BD4680BD84B080B586B000AFA8
:1045E800786007F1240080E80E000023FB757B68E3
:1045F800FB6000233B6109E07A683B6940339B001C
:10460800134400225A603B6901333B613B690E2B1E
:10461800F2D9FB6C002B1CD1FB6803F500635B68C7
:10462800FA6802F5006243F0020353607B689B6BF3
:1046380043F400127B689A637B689B6B23F4002227
:104648007B689A637B689B6B23F480227B689A6300
:104658000BE07B689B6B23F400127B689A637B6892
:104668009B6B43F400227B689A63FB6803F56063E5
:104678001A4600231360FB6803F500631946FB68BC
:1046880003F500631A460B681360BB6B012B0CD152
:10469800FB6A002B04D10021786800F049F908E092
:1046A8000121786800F044F903E00321786800F0FC
:1046B8003FF91021786800F0F3F80346002B01D089
:1046C8000123FB75786800F011F90346002B01D02F
:1046D8000123FB75FB6803F500631A460023136189
:1046E800FB6803F500631A4600235361FB6803F572
:1046F80000631A460023D36100233B6143E03B6912
:104708005A01FB68134403F510631B6803F0004368
:10471800B3F1004F18D13B69002B0AD13B695A010C
:10472800FB68134403F510631A464FF000631360E7
:1047380013E03B695A01FB68134403F510631A46FA
:104748004FF09043136008E03B695A01FB6813443B
:1047580003F510631A46002313603B695A01FB688E
:10476800134403F510631A46002313613B695A0189
:10477800FB68134403F510631A464FF67F339360C2
:104788003B6901333B617B6A3A699A42B7D300239C
:104798003B6143E03B695A01FB68134403F530630E
:1047A8001B6803F00043B3F1004F18D13B69002B9D
:1047B8000AD13B695A01FB68134403F530631A4672
:1047C8004FF00063136013E03B695A01FB68134420
:1047D80003F530631A464FF09043136008E03B69D5
:1047E8005A01FB68134403F530631A46002313602B
:1047F8003B695A01FB68134403F530631A460023EA
:1048080013613B695A01FB68134403F530631A4688
:104818004FF67F3393603B6901333B617B6A3A69AA
:104828009A42B7D3FB6803F500631B69FA6802F57F
:10483800006223F4807313617B6800229A617B68AD
:104848006FF080425A613B6B002B05D17B689B69F6
:1048580043F010027B689A617B689A690F4B134397
:104868007A689361FB6B002B05D07B689B6943F0EA
:1048780008027B689A61FB6C012B07D17B689B69F6
:1048880043F0804343F004037A689361FB7D184644
:104898001837BD46BDE8804004B0704700383C80FA
:1048A80080B485B000AF786039600023FB603B6856
:1048B8009B0143F020027B681A61FB680133FB60AF
:1048C800FB68094A934201D9032306E07B681B6908
:1048D80003F02003202BF0D0002318461437BD46E0
:1048E8005DF8047B704700BF400D030080B485B0BD
:1048F80000AF78600023FB607B6810221A61FB68B8
:104908000133FB60FB68094A934201D9032306E09F
:104918007B681B6903F01003102BF0D000231846A6
:104928001437BD465DF8047B704700BF400D030097
:1049380080B485B000AF78600B46FB707B68FB6085
:10494800FB6803F500631A68FB78F96801F50061F4
:1049580013430B60002318461437BD465DF8047BEB
:10496800704780B487B000AF78607B683B613B6973
:1049780003F500639B6803F00603FB60FB68002BEC
:1049880002D10023FB750AE0FB68022B02D0FB680A
:10499800062B02D10223FB7501E00F23FB75FB7D7B
:1049A80018461C37BD465DF8047B704780B485B057
:1049B80000AF786039607B68FB603B681B78BB6040
:1049C8003B685B78012B3AD1FB6803F50063DA6931
:1049D8003B681B7803F00F03012101FA03F39BB234
:1049E800F96801F500611343CB61BB685A01FB68A4
:1049F800134403F510631B6803F40043002B55D1DF
:104A0800BB685A01FB68134403F510631A683B68D6
:104A18009B68C3F30A013B68DB789B041943BB68B6
:104A28009B050B431343BA685101FA680A4402F51F
:104A3800106243F0805343F40043136036E0FB6890
:104A480003F50063DA693B681B7803F00F03012163
:104A580001FA03F31B04F96801F500611343CB6104
:104A6800BB685A01FB68134403F530631B6803F401
:104A78000043002B1AD1BB685A01FB68134403F5A5
:104A880030631A683B689B68C3F30A013B68DB78AC
:104A98009B040B431343BA685101FA680A4402F5B0
:104AA800306243F0805343F40043136000231846F8
:104AB8001437BD465DF8047B7047000080B485B0AC
:104AC80000AF786039607B68FB603B681B78BB602F
:104AD8003B685B78012B61D1BB685A01FB681344C2
:104AE80003F510631B6803F00043B3F1004F1FD1B7
:104AF800BB685A01FB68134403F510631B68BA6866
:104B08005101FA680A4402F5106243F00063136029
:104B1800BB685A01FB68134403F510631B68BA6845
:104B28005101FA680A4402F5106243F080431360A9
:104B3800FB6803F50063DA6B3B681B7803F00F032F
:104B4800012101FA03F39BB2DB43F96801F5006127
:104B58001340CB63FB6803F50063DA693B681B7895
:104B680003F00F03012101FA03F39BB2DB43F96859
:104B780001F500611340CB61BB685A01FB6813441F
:104B880003F510631A68BB685901FB680B4403F509
:104B980010631946354B13400B6060E0BB685A013F
:104BA800FB68134403F530631B6803F00043B3F15B
:104BB800004F1FD1BB685A01FB68134403F53063EB
:104BC8001B68BA685101FA680A4402F5306243F07A
:104BD80000631360BB685A01FB68134403F5306334
:104BE8001B68BA685101FA680A4402F5306243F05A
:104BF80080431360FB6803F50063DA6B3B681B783E
:104C080003F00F03012101FA03F31B04DB43F968E6
:104C180001F500611340CB63FB6803F50063DA69B3
:104C28003B681B7803F00F03012101FA03F31B040F
:104C3800DB43F96801F500611340CB61BB685A0199
:104C4800FB68134403F530631A68BB685901FB68B5
:104C58000B4403F530631946054B13400B600023E2
:104C680018461437BD465DF8047B7047007833EC6E
:104C78000078F3EF80B58AB002AFF860B9601346E8
:104C8800FB71FB68FB61BB681B78BB61BB685B7829
:104C9800012B40F05C81BB685B69002B32D1BB699A
:104CA8005A01FB69134403F510631B69BA69510182
:104CB800FA690A4402F5106223F0FF5323F4C01383
:104CC8001361BB695A01FB69134403F510631B693F
:104CD800BA695101FA690A4402F5106243F40023E3
:104CE8001361BB695A01FB69134403F510631B691F
:104CF800BA695101FA690A4402F51062DB0CDB0457
:104D0800136174E0BB695A01FB69134403F510632E
:104D18001B69BA695101FA690A4402F51062DB0C91
:104D2800DB041361BB695A01FB69134403F5106383
:104D38001B69BA695101FA690A4402F5106223F045
:104D4800FF5323F4C0131361BB695A01FB69134471
:104D580003F510631A69BB685969BB689B680B4403
:104D6800591EBB689B68B1FBF3F3D9049D4B0B40FC
:104D7800B9694801F969014401F5106113430B61F0
:104D8800BB695A01FB69134403F510631A69BB68D0
:104D98005B69C3F31203B9694801F969014401F574
:104DA800106113430B61BB68DB78012B1FD1BB6912
:104DB8005A01FB69134403F510631B69BA69510171
:104DC800FA690A4402F5106223F0C0431361BB6913
:104DD8005A01FB69134403F510631B69BA69510151
:104DE800FA690A4402F5106243F000531361FB7933
:104DF800012B4BD1BB681B69002B09D0BB695A0139
:104E0800FB69134403F510631A46BB681B695361B9
:104E1800BB68DB78012B28D1FB6903F500639B682D
:104E280003F48073002B10D1BB695A01FB6913444A
:104E380003F510631B68BA695101FA690A4402F55F
:104E4800106243F0005313600FE0BB695A01FB691D
:104E5800134403F510631B68BA695101FA690A44DF
:104E680002F5106243F080531360BB695A01FB6975
:104E7800134403F510631B68BA695101FA690A44BF
:104E880002F5106243F0044313602FE1BB695A0135
:104E9800FB69134403F510631B68BA695101FA6989
:104EA8000A4402F5106243F004431360BB68DB78E0
:104EB800012B15D0BB685B69002B00F01781FB69DB
:104EC80003F500635A6BBB681B7803F00F030121DD
:104ED80001FA03F3F96901F5006113434B6305E136
:104EE800FB6903F500639B6803F48073002B10D102
:104EF800BB695A01FB69134403F510631B68BA695F
:104F08005101FA690A4402F5106243F00053136034
:104F18000FE0BB695A01FB69134403F510631B6872
:104F2800BA695101FA690A4402F5106243F08053E4
:104F38001360BB68D968BB681A78BB685B6998B2AC
:104F4800FB7900930346F86800F02BFACEE0BB69C2
:104F58005A01FB69134403F530631B69BA695101AF
:104F6800FA690A4402F53062DB0CDB041361BB69A1
:104F78005A01FB69134403F530631B69BA6951018F
:104F8800FA690A4402F5306223F0FF5323F4C01390
:104F98001361BB685B69002B26D1BB695A01FB69A9
:104FA800134403F530631A69BB689B68C3F31203A3
:104FB800B9694801F969014401F5306113430B618E
:104FC800BB695A01FB69134403F530631B69BA696D
:104FD8005101FA690A4402F5306243F4002313616F
:104FE80036E000BF0000F81FBB685A69BB689B68C1
:104FF80013445A1EBB689B68B2FBF3F3FB82BB6980
:105008005A01FB69134403F530631A69FB8AD90412
:10501800394B0B40B9694801F969014401F5306120
:1050280013430B61BB695A01FB69134403F53063F1
:105038001A69BB689B68F98A01FB03F3C3F312037F
:10504800B9694801F969014401F5306113430B61FD
:10505800FB79012B0DD1BB68DB68002B09D0BB683D
:10506800D968BB695A01FB69134403F530630A46E2
:105078005A61BB68DB78012B28D1FB6903F5006313
:105088009B6803F48073002B10D1BB695A01FB693C
:10509800134403F530631B68BA695101FA690A447D
:1050A80002F5306243F0005313600FE0BB695A0108
:1050B800FB69134403F530631B68BA695101FA6947
:1050C8000A4402F5306243F080531360BB695A0109
:1050D800FB69134403F530631B68BA695101FA6927
:1050E8000A4402F5306243F0044313600023184673
:1050F8002037BD4680BD00BF0000F81F80B487B0D0
:1051080000AFF860B9601346FB71FB687B61BB6850
:105118001B783B61BB685B78012B40F0CD80BB6896
:105128005B69002B32D13B695A017B69134403F553
:1051380010631B693A6951017A690A4402F51062E1
:1051480023F0FF5323F4C01313613B695A017B69B1
:10515800134403F510631B693A6951017A690A44DB
:1051680002F5106243F4002313613B695A017B691D
:10517800134403F510631B693A6951017A690A44BB
:1051880002F51062DB0CDB0413614EE03B695A0147
:105198007B69134403F510631B693A6951017A6905
:1051A8000A4402F51062DB0CDB0413613B695A0107
:1051B8007B69134403F510631B693A6951017A69E5
:1051C8000A4402F5106223F0FF5323F4C01313615D
:1051D800BB685A69BB689B689A4203D9BB689A68DE
:1051E800BB685A613B695A017B69134403F5106334
:1051F8001B693A6951017A690A4402F5106243F45D
:10520800002313613B695A017B69134403F510635A
:105218001A69BB685B69C3F3120339694801796984
:10522800014401F5106113430B61FB79012B1ED179
:10523800BB681B69002B09D03B695A017B69134481
:1052480003F510631A46BB681B6953613B695A0131
:105258007B69134403F510631B683A6951017A6945
:105268000A4402F5106243F00443136092E03B697C
:105278005A017B69134403F510631B683A695101AD
:105288007A690A4402F5106243F004431360BB686C
:105298005B69002B7ED07B6903F500635A6BBB68A2
:1052A8001B7803F00F03012101FA03F3796901F573
:1052B800006113434B636DE03B695A017B691344FA
:1052C80003F530631B693A6951017A690A4402F5AA
:1052D8003062DB0CDB0413613B695A017B691344C0
:1052E80003F530631B693A6951017A690A4402F58A
:1052F800306223F0FF5323F4C0131361BB685B696A
:10530800002B03D0BB689A68BB685A613B695A0195
:105318007B69134403F530631B693A6951017A6963
:105328000A4402F5306243F4002313613B695A01D1
:105338007B69134403F530631A69BB689B68C3F340
:105348001203396948017969014401F53061134351
:105358000B61FB79012B0DD1BB68DB68002B09D0F1
:10536800BB68D9683B695A017B69134403F530630C
:105378000A465A613B695A017B69134403F5306355
:105388001B683A6951017A690A4402F5306243F0B0
:1053980004431360002318461C37BD465DF8047BA0
:1053A800704780B489B000AFF860B96011461A46FA
:1053B8000B46FB711346BB80FB687B61BB68FB61D6
:1053C80097F82830002B1AD1BB8803339B083B6120
:1053D8000023BB610FE0FB791A037B69134403F5D3
:1053E80080531A46FB691B681360FB690433FB6131
:1053F800BB690133BB61BA693B699A42EBD30023AD
:1054080018462437BD465DF8047B704780B489B0E0
:1054180000AFF860B9601346FB80FB687B61BB682E
:10542800FB61FB8803339B083B610023BB610BE0F6
:105438007B6903F580531A68FB691A60FB690433BA
:10544800FB61BB690133BB61BA693B699A42EFD31F
:10545800FB6918462437BD465DF8047B704780B465
:1054680085B000AF786039607B68FB603B681B786B
:10547800BB603B685B78012B2CD1BB685A01FB6889
:10548800134403F510631B68002B12DBBB68002B69
:105498000FD0BB685A01FB68134403F510631B68FF
:1054A800BA685101FA680A4402F5106223F0804391
:1054B8001360BB685A01FB68134403F510631B684B
:1054C800BA685101FA680A4402F5106243F40013FD
:1054D80013602BE0BB685A01FB68134403F5306383
:1054E8001B68002B12DBBB68002B0FD0BB685A016E
:1054F800FB68134403F530631B68BA685101FA6806
:105508000A4402F5306223F080431360BB685A01F5
:10551800FB68134403F530631B68BA685101FA68E5
:105528000A4402F5306243F400131360002318465E
:105538001437BD465DF8047B704780B485B000AF72
:10554800786039607B68FB603B681B78BB603B68B0
:105558005B78012B28D1BB685A01FB68134403F51B
:1055680010631B68BA685101FA680A4402F51062B0
:1055780023F4001313603B68DB78032B03D03B68EC
:10558800DB78022B38D1BB685A01FB68134403F55A
:1055980010631B68BA685101FA680A4402F5106280
:1055A80043F08053136027E0BB685A01FB6813443B
:1055B80003F530631B68BA685101FA680A4402F5BA
:1055C800306223F4001313603B68DB78032B03D0AD
:1055D8003B68DB78022B0FD1BB685A01FB68134488
:1055E80003F530631B68BA685101FA680A4402F58A
:1055F800306243F080531360002318461437BD46C9
:105608005DF8047B704780B485B000AF78600B46C6
:10561800FB707B68FB60FB6803F500631B68FA6836
:1056280002F5006223F4FE631360FB6803F5006370
:105638001A68FB781B0103F4FE63F96801F5006141
:1056480013430B60002318461437BD465DF8047BEE
:10565800704780B485B000AF78607B68FB60FB68FA
:1056680003F560631B68FA6802F5606223F00303C0
:105678001360FB6803F500635B68FA6802F5006273
:1056880023F002035360002318461437BD465DF823
:10569800047B704780B485B000AF78607B68FB609E
:1056A800FB6803F560631B68FA6802F5606223F023
:1056B80003031360FB6803F500635B68FA6802F58F
:1056C800006243F002035360002318461437BD46B6
:1056D8005DF8047B704780B485B000AF78607B6864
:1056E8005B69FB607B689B69FA681340FB60FB6839
:1056F80018461437BD465DF8047B704780B485B002
:1057080000AF78607B68FB60FB6803F500639B690A
:10571800BB60FB6803F50063DB69BA681340BB60D4
:10572800BB681B0C18461437BD465DF8047B7047F0
:1057380080B485B000AF78607B68FB60FB6803F5D8
:1057480000639B69BB60FB6803F50063DB69BA68AB
:105758001340BB60BB689BB218461437BD465DF862
:10576800047B704780B485B000AF78600B46FB704F
:105778007B68FB60FB785A01FB68134403F53063D0
:105788009B68BB60FB6803F500635B69BA681340FC
:10579800BB60BB6818461437BD465DF8047B70478C
:1057A80080B487B000AF78600B46FB707B687B6184
:1057B8007B6903F500631B693B617B6903F5006343
:1057C8005B6BFB60FB7803F00F03FA6822FA03F3C4
:1057D800DB01DBB23A6913433B61FB785A017B6911
:1057E800134403F510639B683A691340BB60BB68B8
:1057F80018461C37BD465DF8047B704780B483B0FB
:1058080000AF78607B685B6903F0010318460C37CA
:10581800BD465DF8047B704780B485B000AF786002
:105828007B68FB60FB6803F510631B68FA6802F588
:10583800106223F4FF6323F007031360FB6803F58A
:1058480000635B68FA6802F5006243F48073536092
:10585800002318461437BD465DF8047B70470000E6
:1058680080B487B000AFF8600B467A60FB72FB68C3
:105878007B61FB683C3304331B683B613B69264A08
:1058880093420AD97B6903F530631B6803F0004330
:10589800B3F1004F01D1002337E07B6903F5306392
:1058A8001A46002313617B6903F530631B697A6923
:1058B80002F5306243F4002313617B6903F530631A
:1058C8001B697A6902F5306243F0180313617B693A
:1058D80003F530631B697A6902F5306243F0C0430F
:1058E8001361FB7A012B0FD17B6903F530631A46EC
:1058F8007B6853617B6903F530631B687A6902F53D
:10590800306243F080231360002318461C37BD46DD
:105918005DF8047B704700BF0A30544F80B485B0EF
:1059280000AF78600023FB60FB680133FB60FB6815
:10593800134A934201D903231BE07B681B69002BA0
:10594800F2DA0023FB607B681B6943F001027B6885
:105958001A61FB680133FB60FB68094A934201D96D
:10596800032306E07B681B6903F00103012BF0D0D9
:10597800002318461437BD465DF8047B704700BF06
:10598800400D030080B584B000AF78600B46FB7013
:105998004FF4077002F0ECF8F860FB68002B05D1B3
:1059A8007B680022C3F8BC22022366E07B68FA68A1
:1059B800C3F8BC227B681B7C002B19D14FF4007301
:1059C80002228121786801F0B0FF7B6801221A87E2
:1059D8004FF4007302220121786801F0A6FF7B686A
:1059E8000122A3F878217B681022A3F84E2016E044
:1059F800402302228121786801F097FF7B68012209
:105A08001A87402302220121786801F08EFF7B6803
:105A18000122A3F878217B681022A3F84E200823DE
:105A280003228221786801F080FF7B680122A3F8B5
:105A38004C207B68D3F8C0321B689847FB6800226B
:105A4800C3F81422FB680022C3F818227B681B7C69
:105A5800002B09D1FB68D3F804224FF4007301210D
:105A6800786802F051F807E0FB68D3F80422402375
:105A78000121786802F048F8002318461037BD461F
:105A880080BD80B584B000AF78600B46FB70002302
:105A9800FB738121786801F06EFF7B6800221A870A
:105AA8000121786801F067FF7B680022A3F878215C
:105AB8008221786801F05FFF7B680022A3F84C2000
:105AC8007B680022A3F84E207B68D3F8BC32002BF9
